:100000000C942A000C94E0020C9409030C94320323
:100010000C9447000C9447000C9447000C94510436
:100020000C947A040C94A3040C9403040C94D4034D
:100030000C94AB030C94D7040C942A050C94010582
:100040000C9446010C9447000C9447000C94470014
:100050000C94470011241FBECFE5D8E0DEBFCDBF12
:1000600010E0A0E6B0E0EEEEFAE002C005900D92DE
:10007000A436B107D9F720E0A4E6B0E001C01D9294
:10008000AA38B207E1F70E941F010C9475050C9481
:100090000000CF93C82F40E063E085E00E945A0241
:1000A00040E063E086E00E945A02C4FB442740F926
:1000B00061E080E00E945A02C5FB442740F961E0FC
:1000C00081E00E945A02C6FB442740F961E082E0C9
:1000D0000E945A024C2F441F4427441F61E083E0D2
:1000E0000E945A0241E063E087E00E945A028FE9D1
:1000F0009FE00197F1F700C0000040E063E087E077
:100100000E945A028FE99FE00197F1F700C00000BA
:1001100080916400882389F14C2F417061E080E078
:100120000E945A02C1FB442740F961E081E00E942D
:100130005A02C2FB442740F961E082E00E945A0261
:10014000C3FB442740F961E083E00E945A0241E08A
:1001500063E087E00E945A028FE99FE00197F1F780
:1001600000C0000040E063E087E00E945A028FE98F
:100170009FE00197F1F700C00000CF91089541E0A2
:1001800063E085E00E94810141E063E086E00E9437
:10019000810141E063E087E00E94810141E061E08C
:1001A00080E00E94810141E061E081E00E948101E4
:1001B00041E061E082E00E94810141E061E083E092
:1001C0000E9481012FEF89EF90E021508040904004
:1001D000E1F700C0000080E30E9449008FE99FE042
:1001E0000197F1F700C0000080E30E9449008FE909
:1001F0009FE00197F1F700C0000080E30E944900F2
:100200008FE99FE00197F1F700C0000080E20E94B3
:1002100049008FE99FE00197F1F700C0000081E0FD
:10022000809364008CE00E94490086E00E944900AF
:1002300081E00E94490080E80E944900089540E45E
:100240005DE063E070E080E00E9465030E94BF0013
:100250000E94820382E00E948C0385E00E94970343
:100260000E94A103FFCFCF93C82F40E060E00E941F
:10027000810187B1807E87B987B18C2B87B986B120
:10028000806486B9C0936500CF9108951F920F9244
:100290000FB60F9211242F933F934F935F936F9359
:1002A0007F938F939F93AF93BF93EF93FF93E091CF
:1002B0006700F0916800309771F084B195B10995AD
:1002C00086B1806186B980916600813021F4809189
:1002D00065000E943301FF91EF91BF91AF919F9113
:1002E0008F917F916F915F914F913F912F910F90DF
:1002F0000FBE0F901F90189560E072E18AE790E0C2
:1003000008956130E1F138F0623009F46CC0633077
:1003100009F49DC00895413069F44AB321E030E00A
:10032000B90102C0660F771F8A95E2F7CB01842BD3
:100330008ABB089541110EC04AB321E030E0B901F3
:1003400002C0660F771F8A95E2F7CB018095842360
:100350008ABB0895423009F0ACC04BB321E030E0D5
:10036000B90102C0660F771F8A95E2F7CB01942F7F
:10037000982B9BBB9AB3809589238ABB0895413003
:1003800069F447B321E030E0B90102C0660F771F7E
:100390008A95E2F7CB01842B87BB089541110EC0EB
:1003A00047B321E030E0B90102C0660F771F8A959C
:1003B000E2F7CB018095842387BB0895423009F092
:1003C00078C048B321E030E0B90102C0660F771F62
:1003D0008A95E2F7CB01942F982B98BB97B3809521
:1003E000892387BB0895413069F444B321E030E0AC
:1003F000B90102C0660F771F8A95E2F7CB01842B03
:1004000084BB089541110EC044B321E030E0B9012E
:1004100002C0660F771F8A95E2F7CB01809584238F
:1004200084BB0895423009F044C045B321E030E078
:10043000B90102C0660F771F8A95E2F7CB01942FAE
:10044000982B95BB94B38095892384BB0895413044
:1004500069F441B321E030E0B90102C0660F771FB3
:100460008A95E2F7CB01842B81BB089541110EC020
:1004700041B321E030E0B90102C0660F771F8A95D1
:10048000E2F7CB018095842381BB0895423089F443
:1004900042B321E030E0B90102C0660F771F8A95B0
:1004A000E2F7CB01942F982B92BB91B380958923CF
:1004B00081BB0895613039F138F0623009F442C0EF
:1004C000633009F45EC00895413069F44BB321E014
:1004D00030E0B90102C0660F771F8A95E2F7CB01C1
:1004E000842B8BBB089541116AC04BB321E030E0EF
:1004F000B90102C0660F771F8A95E2F7CB0180959C
:1005000084238BBB0895413069F448B321E030E087
:10051000B90102C0660F771F8A95E2F7CB01842BE1
:1005200088BB089541114BC048B321E030E0B901C8
:1005300002C0660F771F8A95E2F7CB01809584236E
:1005400088BB0895413069F445B321E030E0B9013A
:1005500002C0660F771F8A95E2F7CB01842B85BB1B
:10056000089541112CC045B321E030E0B90102C02B
:10057000660F771F8A95E2F7CB018095842385BBB0
:100580000895413069F442B321E030E0B90102C07E
:10059000660F771F8A95E2F7CB01842B82BB089503
:1005A00041110DC042B321E030E0B90102C0660F35
:1005B000771F8A95E2F7CB018095842382BB08954B
:1005C0001F920F920FB60F9211242F933F934F93C8
:1005D0005F936F937F938F939F93AF93BF93EF93AB
:1005E000FF93E0916900F0916A00309709F0099556
:1005F000FF91EF91BF91AF919F918F917F916F91FB
:100600005F914F913F912F910F900FBE0F901F90D0
:1006100018951F920F920FB60F9211242F933F93AC
:100620004F935F936F937F938F939F93AF93BF93FA
:10063000EF93FF93E0916B00F0916C00309709F01D
:100640000995FF91EF91BF91AF919F918F917F910C
:100650006F915F914F913F912F910F900FBE0F902F
:100660001F9018951F920F920FB60F9211242F937F
:100670003F934F935F936F937F938F939F93AF932A
:10068000BF93EF93FF93E0916D00F0916E00309770
:1006900009F00995FF91EF91BF91AF919F918F91D3
:1006A0007F916F915F914F913F912F910F900FBE6E
:1006B0000F901F90189586B7806886BF86B78460B4
:1006C00086BF06B607FEFDCF0895CF93C82F0E94C0
:1006D0007C01EC2FF0E0E05AFF4F208130E0220F48
:1006E000331F032E000C440B550B0E945305205161
:1006F00020B9C1B986B7806486BF86B7846086BFDB
:10070000CF91089586B7806286BF0E945B0381B156
:10071000887F8830F1F70895880F83B90E945B03C2
:1007200081B1887F803211F08831E1F7089583B973
:100730000E945B0381B1887F883211F08033E1F73A
:10074000089586B7806186BF0E945B0381B1887F70
:10075000803AF1F708951F920F920FB60F9211246D
:100760002F933F934F935F936F937F938F939F93B9
:10077000AF93BF93EF93FF93E0916F00F091700000
:10078000309709F00995FF91EF91BF91AF919F913B
:100790008F917F916F915F914F913F912F910F902A
:1007A0000FBE0F901F9018951F920F920FB60F92C9
:1007B00011242F933F934F935F936F937F938F9366
:1007C0009F93AF93BF93EF93FF93E0917600F091E7
:1007D0007700309709F0099588B7816088BF8091CC
:1007E0007A0082BFFF91EF91BF91AF919F918F915E
:1007F0007F916F915F914F913F912F910F900FBE1D
:100800000F901F9018951F920F920FB60F92112400
:100810002F933F934F935F936F937F938F939F9308
:10082000AF93BF93EF93FF93809175008823F1F00E
:10083000809172008F5F8093720090917100891790
:1008400038F040E060917400809173000E945A0279
:1008500080917200843688F041E06091740080914C
:1008600073000E945A021092720007C0E091780053
:10087000F0917900309709F0099588B7826088BFB8
:10088000FF91EF91BF91AF919F918F917F916F9168
:100890005F914F913F912F910F900FBE0F901F903E
:1008A00018951F920F920FB60F9211242F933F931A
:1008B0004F935F936F937F938F939F93AF93BF9368
:1008C000EF93FF93E0918200F0918300309709F05D
:1008D0000995FF91EF91BF91AF919F918F917F917A
:1008E0006F915F914F913F912F910F900FBE0F909D
:1008F0001F9018951F920F920FB60F9211242F93ED
:100900003F934F935F936F937F938F939F93AF9397
:10091000BF93EF93FF93E0918000F09181003097B7
:1009200009F00995FF91EF91BF91AF919F918F9140
:100930007F916F915F914F913F912F910F900FBEDB
:100940000F901F9018951F920F920FB60F921124BF
:100950002F933F934F935F936F937F938F939F93C7
:10096000AF93BF93EF93FF9380917D008F5F809350
:100970007D00E0917E00F0917F00309709F00995AD
:1009800080917B0090917C009DBD8CBDFF91EF918B
:10099000BF91AF919F918F917F916F915F914F9197
:1009A0003F912F910F900FBE0F901F9018951F929F
:1009B0000F920FB60F9211242F933F934F935F9393
:1009C0006F937F938F939F93AF93BF93EF93FF9317
:1009D000E0918400F0918500309711F08CB1099579
:1009E000FF91EF91BF91AF919F918F917F916F9107
:1009F0005F914F913F912F910F900FBE0F901F90DD
:100A000018951F920F920FB60F9211242F933F93B8
:100A10004F935F936F937F938F939F93AF93BF9306
:100A2000EF93FF93E0918800F0918900309709F0EF
:100A30000995FF91EF91BF91AF919F918F917F9118
:100A40006F915F914F913F912F910F900FBE0F903B
:100A50001F9018951F920F920FB60F9211242F938B
:100A60003F934F935F936F937F938F939F93AF9336
:100A7000BF93EF93FF93E0918600F091870030974A
:100A800009F00995FF91EF91BF91AF919F918F91DF
:100A90007F916F915F914F913F912F910F900FBE7A
:100AA0000F901F901895A1E21A2EAA1BBB1BFD01E7
:100AB0000DC0AA1FBB1FEE1FFF1FA217B307E4073D
:100AC000F50720F0A21BB30BE40BF50B661F771F95
:100AD000881F991F1A9469F7609570958095909575
:0E0AE0009B01AC01BD01CF010895F894FFCF3A
:040AEE0001041040AF
:00000001FF
